:020000040800F2
:100000003804002001010008EB140008D710000894
:10001000E9140008BD01000889170008000000006D
:10002000000000000000000000000000131700089E
:10003000BF01000800000000ED14000815170008BB
:100040001B0100081B0100081B0100081B01000820
:100050001B0100081B0100081B010008C10100086A
:10006000C70100081B0100081B0100081B01000854
:100070001B0100081B0100081B0100081B010008F0
:100080001B0100081B0100081B0100081B010008E0
:100090001B0100081B0100081B0100081B010008D0
:1000A0001B0100081B0100081B0100081B010008C0
:1000B0001B0100081B010008000000001B010008D4
:1000C0001B01000800000000000000001B010008E8
:1000D000000000001B0100081B01000800000000D8
:1000E0001B010008F11400081B010008DFF80CD008
:1000F00000F052F800480047F91B000838040020BF
:100100000648804706480047FEE7FEE7FEE7FEE7B1
:10011000FEE7FEE7FEE7FEE7FEE7FEE787170008DB
:10012000ED00000840EA01039B0703D009E008C97D
:10013000121F08C0042AFAD203E011F8013B00F8AC
:10014000013B521EF9D27047D2B201E000F8012BF8
:10015000491EFBD270470022F6E710B513460A4647
:1001600004461946FFF7F0FF204610BD30B50B4698
:10017000014600202022012409E021FA02F59D42D7
:1001800005D303FA02F5491B04FA02F52844151EAB
:10019000A2F10102F1DC30BD064C074D06E0E0683B
:1001A00040F0010394E8070098471034AC42F6D3BE
:1001B000FFF7A0FF3C1D00085C1D0008FEE770472C
:1001C000022000F09FB8042000F09CB870B50446EF
:1001D00000F08AF90546601C02D004480078044407
:1001E00000F082F9401BA042FAD370BD100000203D
:1001F00030B4414A002401231178022820D0042879
:1002000030D189B302F10800012940D0022946D03B
:1002100003294CD0C01C06295DD0052964D00429CF
:1002200020D11179491C1171C170517941709179B6
:1002300081703149002230BC0B31304800F062BE81
:1002400079B1012911D0022911D0032912D0062930
:1002500012D0052912D0042904D1147030BC00F04A
:1002600087BF137030BC70470AE0022000E0032013
:100270001070F7E70620FBE70520F9E70420F7E711
:1002800030BC00224FF480611D4800F027B951783E
:10029000491CC9B25170182910D154700EE09178E0
:1002A000491CC9B291703C2908D1947006E0D178FC
:1002B000491CC9B2D1703C2900D1D4705178017069
:1002C00091784170D17881700B49002230BC08319F
:1002D0000A4800F079BE9179491CC9B29171202970
:1002E00000D1937111799FE75179491CC9B25171BD
:1002F0000D29F7D15371F5E7000000202000002000
:10030000000C0140044910B50A68024202D008609E
:10031000FFF76EFF10BD0000140401402DE9F84FF7
:10032000DFF89C91002409F1040A0AF1040B23462A
:100330000F270BF1040EBBE00125A5402A40AA427D
:1003400076D1DFF880C14E68A6EB0C0866452BD04D
:100350000DDC032E34D005DC36B3012E19D0022E6D
:100360002FD11BE0112E16D0122E2AD119E0B8F58C
:10037000881F19D006DCB8F5803F15D0B8F5801F6E
:100380001FD111E0B8F5001F0ED0B8F5041F18D129
:100390000AE0CB6815E0CB681B1D12E0CB68083380
:1003A0000FE0CB680C330CE08B682BB1012B4FF0C6
:1003B000080303D0456104E0042302E0056100E086
:1003C0000023FF2A01D8064601E000F104064FEAA7
:1003D000840501D9A5F12005D6F8008007FA05FCAF
:1003E00028EA0C0803FA05F548EA0508C6F8008073
:1003F0004D68ED005BD5344DAE6946F00106AE6147
:10040000AD6924F0030605F0010500952F4D06EBBC
:10041000050CDCF80850A607360F07FA06F825EA9F
:100420000805DFF8AC80404503D14FF0000810E02C
:100430003DE0DFF8A080404502D14FF0010808E020
:10044000DFF89480404502D14FF0020801E04FF000
:10045000030808FA06F848EA0508CCF808804D6851
:10046000D9F80060ED034D4601D5164300E09643F0
:100470002E604D68DAF80060AD03554601D516438D
:1004800000E096432E604D68DBF80060ED025D46AB
:1004900001D5164300E096432E604D68DEF80060FB
:1004A000AD02754601D5164300E096432E60641CEC
:1004B0000A6832FA04F57FF43FAFBDE8F88F000018
:1004C0000004014000001110001002400000014033
:1004D00000080140000C0140001001400AB1016118
:1004E00070470904FBE7000001488068704700007E
:1004F0001000002002488168027811448160704732
:1005000010000020074810B5016841F0100101609B
:10051000032000F075F8002000F006F800F024F841
:10052000002010BD0020024070B50D4D04464FF470
:100530007A712878B1FBF0F00A490968B1FBF0F054
:1005400000F0B5FD48B9102C07D200222146501EFC
:1005500000F036F800206C6070BD012070BD000016
:10056000100000201C0000200C4808B5816941F0F3
:1005700001018161816901F001010091C16941F0CE
:100580008051C161C06900F080500090044841680A
:1005900021F0E06141F08061416008BD001002403F
:1005A00000000140002809DB00F01F0201219140FA
:1005B0004009800000F1E020C0F800117047000001
:1005C000F0B40E4B1B680C46C3F30223C3F10705BE
:1005D000042D00D90425191D072901D2002300E0AC
:1005E000DB1E012606FA05F1491E214099409E4076
:1005F000761E16403143F0BC01F0DCB80CED00E093
:10060000064900F0070208684FF6FF03184040EA69
:100610000220034A10430860704700000CED00E020
:100620000000FA05014901200862704700000E42EF
:1006300010B529A401461DCC86B08DE81D002AA066
:100640002A4C006804900020012923D002293AD0C6
:1006500010291DD161682268D20119D5C1F38342E6
:10066000C9031DF8020009D5616804AAC1F340411D
:10067000515C1F4AB2FBF1F1484301E01D49484378
:100680006168490204D440005FF00301B0FBF1F05F
:1006900006B010BD226AC2F30121012903D19207DD
:1006A00001D5C803F4E7022905D1626A920702D591
:1006B00049F64040ECE70329EAD121688903E7D5F0
:1006C0004FF22440E4E700F023F96168C1F381317F
:1006D000491C4900DAE7000002030405060708097F
:1006E0000A0B0C0D0E0F101001020000001002404A
:1006F00000127A0000093D002DE9F8430546007814
:10070000354CC00754D0E0690026C00008D4E06929
:1007100040F08050E061E069012600F080500090D8
:100720002E480168C90512D40168804641F48071E1
:100730000160FFF7D9FE074605E000BFFFF7D4FED2
:10074000C01B642823D8D8F80000C005F6D5206A5D
:1007500010F4407021D0A98801F4407181421CD06E
:10076000206A1F49012220F440700A6000220A60BA
:100770002062C00711D0FFF7B7FE074641F2883864
:1007800008E000BFFFF7B0FEC11B414502D90320BE
:10079000BDE8F883206A8007F4D5206A696820F4F0
:1007A0004070084320621EB1E06920F08050E06193
:1007B0002878800705D56068A96820F44040084380
:1007C00060602878C00605D56068E96820F480007C
:1007D000084360600020DBE700100240007000402A
:1007E000400442422DE9F0470F46050061D0434ED8
:1007F000306800F00700B84209D2306820F00700E6
:1008000038433060306800F00700B84251D12868A2
:100810003B4C810712D5400703D5606840F4E06087
:1008200060602878000703D5606840F4605060601D
:100830006068A96820F0F000084360602878C0076D
:1008400028D06868012810D02168022810D08907B4
:1008500000292EDA616821F0030101436160FFF78E
:1008600043FE804641F288390DE021688903EFE7B5
:100870008901EDE7FFF738FEA0EB0801494502D9F1
:100880000320BDE8F0876068696800F00C00B0EBF9
:10089000810FEFD1306800F00700B8420BD9306803
:1008A00020F0070038433060306800F00700B8429D
:1008B00001D00120E5E72878400705D56068E968A0
:1008C00020F4E060084360602878000706D560687F
:1008D000296920F4605040EAC100606000F028F807
:1008E0006168084AC1F30311515CC84006490860B9
:1008F00006480068FFF718FE0020C2E7002002400B
:1009000000100240041D00081C00002014000020FC
:100910000448054900684968044AC1F3C221515C92
:10092000C84070471C00002000100240141D000841
:1009300012A185B00FC98DE80F0014A0144A0068F9
:1009400004905168134801F00C03042B10D0082BBD
:100950000ED1C1F38343C9031DF803000AD55168C2
:1009600004AAC1F34041515C0A4A5043B0FBF1F084
:1009700005B0704708494843FAE700000203040540
:10098000060708090A0B0C0D0E0F101001020000DB
:100990000010024000127A0000093D002DE9F84FD6
:1009A000040070D02078C04DC00749D06868C0F3FB
:1009B0008100012807D06868C0F38100022809D1AE
:1009C0006868C00306D52868800339D560680028A8
:1009D000E7D035E06068B0F5803F0BD010B1B0F5DE
:1009E000A02F11D0286820F480302860286820F4D7
:1009F000802002E0286840F480302860606890B170
:100A0000FFF772FD06460AE0286840F4802028605F
:100A1000F0E700BFFFF768FD801B642873D82868E3
:100A20008003F7D50CE0FFF75FFD064605E000BF49
:100A3000FFF75AFD801B6428F0D828688003F7D49C
:100A400020789A4E80074FF001094FF0000839D501
:100A5000686810F00C0F07D06868C0F381000228A6
:100A600009D16868C00306D42868800714D52069B6
:100A7000012808D110E02069B0B1C6F80090FFF756
:100A800033FD074605E00AE1FFF72EFDC01B0228F3
:100A9000C4D828688007F7D52868616920F0F80075
:100AA00040EAC10028600DE0C6F80080FFF71CFD99
:100AB000074604E0FFF718FDC01B022823D828686A
:100AC0008007F7D4207800072CD57948A169D9B1DF
:100AD000C0F80090FFF708FD074604E0FFF704FDAB
:100AE000C01B02280FD8686A8007F7D571484FF4F9
:100AF000FA510068B0FBF1F0009000BF0098411E71
:100B00000091FAD20EE080E0C0F80080FFF7ECFC24
:100B1000074604E0FFF7E8FCC01B022875D8686AA6
:100B20008007F7D42078400760D5E8690027C00027
:100B300008D4E86940F08050E861E869012700F0D6
:100B4000805000905C480168C90513D40168834651
:100B500041F480710160FFF7C7FC824606E000BFE8
:100B6000FFF7C2FCA0EB0A0064284ED8DBF80000B7
:100B7000C005F5D5E06801280AD008B1052813D0D2
:100B8000286A20F001002862286A20F0040002E0B0
:100B9000286A40F001002862E06841F2883B98B181
:100BA000FFF7A2FC82460BE0286A40F004002862AE
:100BB000EEE700BFFFF798FCA0EB0A0159455AD8B1
:100BC000286A8007F6D50CE0FFF78EFC824605E028
:100BD000FFF78AFCA0EB0A0159454CD8286A800728
:100BE000F6D41FB1E86920F08050E861E06988B36D
:100BF0006968C1F38101022944D00228C6F86080E7
:100C000004D0FFF771FC044638E034E0FFF76CFCD9
:100C1000074604E0FFF768FCC01B02282BD82868B1
:100C20008001F7D4206AB0F5803F05D16868A168DB
:100C300020F4003008436860D4E90801084369687B
:100C400021F4741108436860C6F86090FFF74CFC0B
:100C5000044606E025E000BFFFF746FC001B022823
:100C600009D828688001F7D51BE000BFFFF73CFCDE
:100C7000001B022802D90320BDE8F88F28688001F4
:100C8000F4D40EE00128F7D06868226A00F48031BD
:100C9000914204D1616A00F47010884201D00120B1
:100CA000EAE70020E8E700000010024000004242AE
:100CB000800442421C000020007000407047000089
:100CC00010B504460068016889070AD540688007A6
:100CD00007D52046FFF7F2FF2068416821F00201A6
:100CE000416003494FF4003008600120607410BD7A
:100CF00014040140F8B505004FF0000016460C46FC
:100D0000009006D02CB100226946284600F019F860
:100D100008B10120F8BD287B2070E87BE070697B7A
:100D20006170A97BA17056B100F0F1FBE0706078B2
:100D300000F0EDFB6070A07800F0E9FBA0700020EF
:100D4000F8BD2DE9F04791460C465FEA00084AD00D
:100D500084B3D8F800004068400744D4404600F00F
:100D600075FC4FF461620546B0FBF2F1B0FBF2F3A3
:100D700002FB13503C23B0FBF3F0B5FBF2F66070BE
:100D800002FB1650B0FBF3F203FB1200A07018290F
:100D900031D31820B1FBF0F7B1FBF0F200FB1210D9
:100DA0002070404600F04BFC411C04D0A84202D900
:100DB000461B02E017E04FF0FF36A7EB071000EBF1
:100DC0004000C0EB001005EBC0152946404600F07E
:100DD0008CFC40B9701C01D0711900E031464046CE
:100DE00000F06FFC10B10120BDE8F08739464046A5
:100DF00000F098FB00E02170B9F1000F0BD02078D3
:100E000000F085FB2070607800F081FB6070A078B6
:100E100000F07DFBA0700020E6E7000070B5040044
:100E200003D0607C002610B105E0012070BD26745F
:100E3000204600F043F802206074204600F01AF9C2
:100E4000042578BB204600F0C4FB58BB20684168ED
:100E500021F007014160A06820B11748016821F026
:100E6000010101601448001F0168A26821F460714B
:100E7000114301606068411C04D10120FFF7D8FBD9
:100E800080B1401E21688A6822F00F0242EA1042B7
:100E90008A602168CA6860F30F02CA60204600F0C9
:100EA000B3FB08B16574C0E7E67301206073A073FB
:100EB0006074002070BD0000306C004008B5006810
:100EC0000D49884217D1FFF7ADFB0C48C16941F0CD
:100ED0000061C161C0690A4900F000600090012012
:100EE0000860002211462920FFF76AFBBDE8084090
:100EF0002920FFF757BB08BD002800400010024022
:100F00003C0442422DE9F0410D4604003BD0C5B3FC
:100F1000207C01283AD04FF0010884F8108002208C
:100F20006074E87872B300F0E9FAE073687800F072
:100F3000E5FA6073A87800F0E1FAA073C2B2617BB1
:100F4000E07B00F093FB20732870204600F07EFBCE
:100F50004FF46161B0FBF1F1002518292DD9182259
:100F6000B1FBF2F1A1EB011101EB4101C1EB011168
:100F700000EBC1163146204600F0B7FB0427C8B984
:100F80000BE000E004E00120BDE8F0810220FBE777
:100F9000E07368786073A878CFE7204600F04FFBD5
:100FA000411C0AD0B04208D206490144204600F054
:100FB00088FB10B167742574E5E784F81180257407
:100FC0000020E1E7805101002DE9F0410D460400C9
:100FD00024D01DB3207C012823D04FF0010884F8D1
:100FE0001080022060742878EAB100F087FA4FF48C
:100FF000616100FB01F6687800F080FAC0EB001038
:1010000006EB8006A87800F079FA351829462046C4
:1010100000F06BFB0026042710BB0FE00120BDE8A9
:10102000F0810220FBE74FF4616148436978C1EB2E
:10103000011100EB8100A9784518E7E720684168B5
:1010400021F005014160204600F0F9FA411C0AD068
:10105000A84208D206490144204600F032FB10B1F4
:1010600067742674DAE784F8118026740020D6E7C6
:101070008051010070B504000AD02068416821F059
:1010800008014160FFF730FA05464FF47A7608E030
:10109000012070BDFFF728FA401BB04201D90320A0
:1010A00070BD206840680007F4D5002070BD10B501
:1010B000401EB0F1807F01D3012010BD4FF0E0242D
:1010C00060610F21601700F075FB0020A061072010
:1010D0002061002010BDFEE770B50E4C05460022D1
:1010E000E1892068FFF7FAF9284600F015F8A18990
:1010F00001222068FFF7F2F90120FFF767F8A189C4
:1011000000222068FFF7EAF9BDE870400120FFF7F0
:101110005DB80000D01C000870B5144C0546C0072F
:10112000A188206801D0012200E00022FFF7D6F953
:10113000A807E188206801D5012200E00022FFF71E
:10114000CDF968072189206801D5012200E000223D
:10115000FFF7C4F928076189206801D5012200E062
:101160000022BDE87040FFF7B9B90000D01C0008AC
:1011700010B50020FFF7B0FF0C20FFF7ADFFBDE872
:1011800010400120FFF722B830B585B00025514C42
:1011900000950195029503954F4A21684F48914269
:1011A00007D1816941F004018161806900F0040088
:1011B0001FE04B4A914207D1816941F008018161EA
:1011C000806900F0080014E0464A914207D1816925
:1011D00041F010018161806900F0100009E0424A8D
:1011E000914207D1816941F020018161806900F05D
:1011F00020000490A18800222068FFF76FF9E188A1
:1012000000222068FFF76AF9218900222068FFF791
:1012100065F9618900222068FFF760F9E189002201
:101220002068FFF75BF9A18900222068FFF756F9D3
:10123000A088E18862890843218911430843E18934
:101240000843A189084300900120CDE9010502204F
:10125000039069462068FFF761F8E1890022206861
:10126000FFF73CF9A18900222068FFF737F9002039
:10127000FFF752FF9620FEF7A9FF0320FFF72CFF90
:101280000520FEF7A3FF0320FFF726FF0120FEF74E
:101290009DFF0320FFF720FF0220FFF71DFF022024
:1012A000FFF71AFF0820FFF717FF0020FFF714FFD2
:1012B0000C20FFF711FF0020FFF70EFF0620FFF7BD
:1012C0000BFF0020FFF708FF0120FFF705FF05B027
:1012D00030BD0000D01C0008000801400010024092
:1012E000000C0140001001400014014010B501281D
:1012F00002D0022802D00CE07F3100E0BF31C8B23A
:10130000010900F00F040846FFF7E6FE2046FFF74C
:10131000E3FEBDE810400220FEF758BF10B50020E4
:10132000FFF7DAFE0F20FFF7D7FEBDE810400120DF
:10133000FEF74CBF70B5194C00F00F050646E18969
:1013400001222068FFF7CAF80F2000EA1610FFF705
:10135000E3FEA18901222068FFF7C0F80120FEF713
:1013600035FFA18900222068FFF7B8F80120FEF7B9
:101370002DFF2846FFF7D0FEA18901222068FFF744
:10138000ADF80120FEF722FFA18900222068FFF7B7
:10139000A5F8BDE870400120FEF718BFD01C00087A
:1013A00070B50546002402E0FFF7C4FF641C285D09
:1013B0000028F9D170BD00002DE9F04385B000246C
:1013C0002A480094019402940394816941F0080131
:1013D0008161816901F008010491816941F0040192
:1013E00081618069DFF8888000F004004FF4806636
:1013F0000490002231464046FFF770F8DFF8749001
:101400004FF47C57002239464846FFF767F806201C
:10141000009019480125CDE9010569464046FEF7CF
:101420007DFFCDE900650226CDE9024669464046CA
:10143000FEF774FF00970396CDE9015469464846CC
:10144000FEF76CFF002202210720FFF7B9F8072002
:10145000FFF7A8F8002203210820FFF7B1F80820C1
:10146000FFF7A0F805B0BDE8F083000000100240CF
:10147000000C014000080140000021101CB50024B0
:1014800018480194164900940160611E41604FF4B0
:1014900080718160FFF7C2FC08B172B6FEE78DF87B
:1014A00004408DF805408DF80640012201A90D4841
:1014B000FFF78AFD08B172B6FEE701208DF8000043
:1014C0008DF801008DF8020002468DF80340694650
:1014D0000448FFF717FD002801D072B6FEE71CBDD7
:1014E0000028004020000020FEE7FEE770470000D3
:1014F0000148FFF7E5BB000020000020010901EBD7
:10150000810100F00F0000EB4100C0B270470021E4
:1015100002E00A38C0B2491C0A28FAD2090740EA98
:10152000116070472DE9F04104460025C07B627BC5
:10153000A37B42E0012A16D0032A14D0052A12D038
:10154000072A10D0082A0ED00A2A0CD00C2A0AD05A
:10155000042A10D0062A0ED0092A0CD00B2A0AD051
:10156000022A0DD028E01F2B0CD30C2A05D1012212
:101570001346401C20E01E2B04D30123521C1BE009
:101580001C2B02D203F1010316E011D183B29E0796
:1015900010D16426B3FBF6F706FB173636B94FF4C5
:1015A000C876B3FBF6F706FB17331BB91D2303E020
:1015B0001D2B01D1032201236D1C8D42BAD3D1B260
:1015C000E0736173DAB2A27300F050F82073BDE8E3
:1015D000F08170B50446FEF787FF05464FF47A7632
:1015E00006E0FEF781FF401BB04201D9032070BD29
:1015F000206840688006F4D52068416841F01001F9
:101600004160002070BD000070B50446006841686C
:1016100021F010014160FEF767FF05464FF47A762E
:1016200007E000BFFEF760FF401BB04201D9032076
:1016300070BD206840688006F4D5002070BD016848
:10164000086A496A89B241EA0040704700688169C6
:101650008AB2C1698BB2816989B28A4203D0C069FA
:1016600061F31F40704743EA02407047F0B56424BD
:10167000C1EBC1030927A500072603EB01130329CA
:10168000B3FBF7F100F5FA60114401440AD2401EA1
:10169000B0FBF4F201EB9001B0FBF5F0891A0844BD
:1016A000001D08E0B0FBF4F201EB9001B0FBF5F097
:1016B000891A0844801CB0FBF6F106FB1100C0B289
:1016C000F0BD70B50D4606460024FFF782FF48B90D
:1016D0003168280C08623168A8B248623046FFF7CA
:1016E00093FF00B10124204670BD70B50D4606463B
:1016F0000024FFF76EFF48B93168280C8861316813
:10170000A8B2C8613046FFF77FFF00B10124204630
:1017100070BD7047FEF7EEBE30B593B02821684625
:10172000FEF719FD14210AA8FEF715FD0024012576
:101730000F940A200090102010941194CDE90450C9
:10174000CDE9065412946846FFF728F908B172B63D
:10175000FEE70F20CDE90A040C940D9400210AA89D
:101760000E94FFF73FF808B172B6FEE74FF4007031
:10177000CDE90F500FA8FEF7BFFF002801D072B6C9
:10178000FEE713B030BD7047FEE700000FB4084B12
:1017900010B504A902AA039800F02CF8044602A987
:1017A000002000F0C8F9204610BC5DF814FB0000D2
:1017B000371B00080907090E002804DB00F1E020B0
:1017C00080F80014704700F00F0000F1E02080F86E
:1017D000141D704702E008C8121F08C1002AFAD180
:1017E00070477047002001E001C1121F002AFBD1A1
:1017F000704700002DE9FF4F8BB088460546002654
:1018000006E025280BD0DDE90D1290476D1C761CF3
:1018100028780028F5D10FB03046BDE8F08F0024BD
:10182000A146A2460122AE4900E0044315F8013F5B
:10183000203B02FA03F00842F7D128782A2810D07A
:101840006FF02F022878A0F13001092915D809EB93
:10185000890102EB410144F0020400EB01096D1C17
:10186000F0E758F8041B5FEA010903D544F400547B
:10187000C9F1000944F002046D1C28782E2817D104
:1018800015F8010F44F004042A280ED06FF02F023F
:101890002878A0F1300109290AD80AEB8A0102EB65
:1018A000410100EB010A6D1CF2E758F804AB6D1C16
:1018B00028786C280FD006DC4C2817D068280DD06B
:1018C0006A2814D104E0742810D07A280FD10DE0D2
:1018D00044F400140AE044F4801401E044F4401499
:1018E0006978814202D104F580146D1C6D1C287842
:1018F000692865D006DC00288DD0632827D06428AD
:1019000006D15DE06E2808D073282AD0752877D0DC
:10191000DDE90D129047761CE0E0C4F30250022886
:1019200009D003280DD0D8F8001004280DD00E607F
:1019300008F10408D2E0D8F80010F217C1E90062FB
:10194000F6E7D8F800100E80F2E70E70F0E718F80E
:10195000041B8DF8001000208DF80100EB460120DB
:1019600003E058F804BB4FF0FF3061074FF0000769
:1019700001D40AE07F1C57450DDA8742FADB1BF8D9
:1019800007100029F6D106E07F1C8742FCDB1BF81C
:1019900007100029F8D1DDE90D23A9EB07008146E6
:1019A000214600F0B1F83044C61904E0DDE90D121B
:1019B0001BF8010B90477F1EF8D22146484688E06D
:1019C00058F8040BC4F302514FF00A0B032900D15D
:1019D00000B2042900D140B2002802DA40422D2191
:1019E00002E0210505D52B218DF82410012104E00A
:1019F00006E0E10710D02021F6E708AF089113E0D8
:101A000058F8040BC4F302514FF00A0B032900D11C
:101A100080B2042900D1C0B20021EEE75946FEF79A
:101A2000A5FB303107F8011D0028F7D1ADEB070009
:101A300000F1200B600702D524F4803401E04FF060
:101A4000010ADA4502DDAAEB0B0000E00020824625
:101A500000EB0B0108980144A9EB01000A90E00398
:101A600006D4DDE90D2321460A9800F04DF806441E
:101A70004FF0000908E009A911F80900DDE90D128D
:101A8000904709F10109761C08998945F3DBE003C9
:101A90000CD5DDE90D2321460A9800F035F80644FF
:101AA00004E0DDE90D1230209047761CBAF1000108
:101AB000AAF1010AF5DC05E0DDE90D1217F8010BCA
:101AC0009047761CBBF10001ABF1010BF4DC0A98E6
:101AD0002146DDE90D2300F005F806446D1C97E66C
:101AE000092801002DE9F041044600251E4617464D
:101AF000880404D405E039462020B0476D1C641EDC
:101B0000F9D52846BDE8F0812DE9F04104460025CD
:101B10001E469046C80301D5302700E020278804E0
:101B200004D505E041463846B0476D1C641EF9D522
:101B30002846BDE8F0810A68531C0B60107070479E
:101B4000134810B5007801280CD002280CD00328C7
:101B50000DD006280DD005280DD0042813D0072855
:101B600013D00CE0022100E00521012005E008214E
:101B7000FBE7022100E005210220FFF7B7FBBDE8EB
:101B80001040FFF7CBBB0A21F6E70E21EDE700007E
:101B9000000000202DE9FC4707460AA8154690E8FA
:101BA000000700200E46024600901C466946114878
:101BB000FFF7C7F89DF8000038709DF801003070FD
:101BC0009DF802002870002201A90A48FFF792F848
:101BD0009DF8070020709DF8051088F800109DF80A
:101BE000061089F800109DF804108AF80010BDE86E
:101BF000FC8700002000002090B0FEF783FCFFF778
:101C00008BFDFFF7D9FBFFF739FCFFF7BDFA012188
:101C10000846FFF76BFB2022204903A8FEF782FA53
:101C20001F4E03AD771EA6F10208F41F4FF4FA7998
:101C30001B4BCDF80080DB1E5A1ECDE90176511EEC
:101C4000481EFFF7A7FFE179E07855F82110CDE9AC
:101C50000001A378627813A10BA8FFF797FD01217B
:101C60000846FFF743FB0BA8FFF79AFB207900908B
:101C70006379A27911A10BA8FFF788FD0121022049
:101C8000FFF734FB0BA8FFF78BFB207808B1FFF7B9
:101C900057FF4846FEF79AFACAE70000E41C00081E
:101CA00007000020253032643A253032643A25306E
:101CB000326420202020202573000000253032646B
:101CC0002F253032642F323025303264000000007E
:101CD000000801400001000200040008001000207C
:101CE00014000000381D0008281D0008201D0008F1
:101CF0001C1D0008341D0008241D0008301D0008AC
:101D00002C1D000800000000000000000102030478
:101D100006070809000000000102030457454400BB
:101D200054554500465249004D4F4E0053554E0004
:101D30005341540054485500000000005C1D000849
:101D40000000002020000000D41700087C1D0008BF
:101D50002000002018040000E41700080000000024
:101D60000000000000000000000000000100000072
:0C1D700010000000000000000024F4003F
:04000005080000ED02
:00000001FF
